{"abi":[{"type":"function","name":"deploy","inputs":[{"name":"salt","type":"bytes32","internalType":"bytes32"},{"name":"initCode","type":"bytes","internalType":"bytes"}],"outputs":[{"name":"collector","type":"address","internalType":"address"}],"stateMutability":"nonpayable"},{"type":"event","name":"Deployed","inputs":[{"name":"collector","type":"address","indexed":true,"internalType":"address"},{"name":"salt","type":"bytes32","indexed":true,"internalType":"bytes32"}],"anonymous":false},{"type":"error","name":"DeployFailed","inputs":[]}],"bytecode":{"object":"0x608080604052346100165761011f908161001b8239f35b5f80fdfe608060405260043610156010575f80fd5b5f3560e01c63cdcb760a146022575f80fd5b3460905760403660031901126090576001600160401b036024358181116090573660238201121560905780600401359182116090573660248383010111609057608c916024607292016004356094565b6040516001600160a01b0390911681529081906020820190565b0390f35b5f80fd5b92918391816040519182375ff5916001600160a01b038316801560d7577f94bfd9af14ef450884c8a7ddb5734e2e1e14e70a1c84f0801cc5a29e34d264285f80a3565b60405163b4f5411160e01b8152600490fdfea26469706673582212208a043c20d8d19ac9c37b900db166ea164ea7e9980ec6a8c9207a28bfdf99703a64736f6c63430008180033","linkReferences":{}},"methodIdentifiers":{"deploy(bytes32,bytes)":"cdcb760a"},"id":23}